S012000073646B5F323032345F312E7372656319
S11300000C9434000C943E000C943E000C943E007E
S11300100C943E000C943E000C943E000C943E0064
S11300200C943E000C943E000C943E000C943E0054
S11300300C943E000C943E000C943E000C943E0044
S11300400C943E000C943E000C943E000C943E0034
S11300500C943E000C943E000C943E000C94400022
S11300600C943E000C943E0011241FBECFEFD8E048
S1130070DEBFCDBF0E9493000C949C000C94000042
S11300801F920F920FB60F9211242F933F934F9309
S11300905F936F937F938F939F93AF93BF93EF93EC
S11300A0FF9304C00E946C000E948C0000B605FC03
S11300B0F9CF0E949000FF91EF91BF91AF919F9172
S11300C08F917F916F915F914F913F912F910F90FD
S11300D00FBE0F901F90189520E030E019C085B135
S11300E015B84FEF83E294EF415080409040E1F720
S11300F000C0000085B1806285B94FEF83E294EFC0
S1130100415080409040E1F700C000002F5F3F4F16
S11301102530310524F3089585B1806285B90895A9
S113012085B115B808950E9498000E946C00FFCF15
S10F013084B1806284B90895F894FFCF74
S9030000FC
