:100000000C9434000C9449000C9449000C94490061
:100010000C9449000C9449000C9449000C9449003C
:100020000C9449000C9449000C9449000C9449002C
:100030000C9449000C9449000C9449000C9449001C
:100040000C9449000C9449000C9449000C9449000C
:100050000C9449000C9449000C9449000C944B00FA
:100060000C9449000C94490011241FBECFEFD8E036
:10007000DEBFCDBF11E0A0E0B1E0E8E9F3E002C0EF
:1000800005900D92A433B107D9F70E94AD010C94ED
:10009000CA010C9400001F920F920FB60F92112408
:1000A0002F933F934F935F936F937F938F939F9380
:1000B000AF93BF93EF93FF9311C062E081E00E9482
:1000C000610182E091E00E9475012FEF83EC99E0DD
:1000D000215080409040E1F700C0000000B605FCD0
:1000E000ECCF62E081E00E94610180E191E00E943A
:1000F0007501FF91EF91BF91AF919F918F917F918A
:100100006F915F914F913F912F910F900FBE0F9084
:100110001F9018951092B90084E18093B80084E094
:100120008093BC00089584EA8093BC008091BC0059
:100130008823E4F7089584E98093BC008FE99FE069
:100140000197F1F700C0000008958093BB0084EC94
:100150008093BC008091BC008823E4F708950E943E
:1001600093008EE40E94A5008FEF0E94A5002FEF60
:1001700089EF90E0215080409040E1F700C00000FE
:1001800084E30E94A50080E30E94A5008FE39CE920
:100190000197F1F700C0000084E30E94A50080E30E
:1001A0000E94A5008FE99FE00197F1F700C00000D1
:1001B00084E30E94A50080E30E94A5008FE99FE0F0
:1001C0000197F1F700C0000084E20E94A50080E2E0
:1001D0000E94A5008FE99FE00197F1F700C00000A1
:1001E0000E949B000895CF93DF93C82F0E94930035
:1001F0008EE40E94A500DC2FD07F8D2F8C600E94A2
:10020000A5008D2F88600E94A50080E1C89FE001B5
:1002100011248C2F8C600E94A5008C2F0E94A500B9
:100220000E949B008FE39FE10197F1F700C000005F
:100230008FE39FE10197F1F700C00000DF91CF91BC
:1002400008950E948A000E94AF008CE20E94F30091
:100250008CE00E94F30086E00E94F30080E80E9498
:10026000F3000895CF93DF93C82F0E9493008EE48C
:100270000E94A500DC2FD07F8D2F8D600E94A500ED
:100280008D2F89600E94A50080E1C89FE0011124A4
:100290008C2F8D600E94A5008C2F89600E94A50084
:1002A0000E949B008FE39FE10197F1F700C00000DF
:1002B0008FE39FE10197F1F700C00000DF91CF913C
:1002C0000895E62FF0E0E150FF4F9081890F8158AB
:1002D0000E94F300089581E00E94F3008FE39FE104
:1002E0000197F1F700C0000008950F931F93CF937B
:1002F000DF938C01C0E0D0E003C00E943201219660
:10030000F801EC0FFD1F80818111F7CFDF91CF91B4
:100310001F910F91089520E030E019C085B18062EF
:1003200085B94FEF83EC99E0415080409040E1F770
:1003300000C0000085B115B84FEF83EC99E0415043
:1003400080409040E1F700C000002F5F3F4F253014
:10035000310524F385B115B808950E94C6010E94A5
:100360008B010E9421010E946B0161E081E00E94EB
:1003700061018EE191E00E94750162E081E00E94DE
:10038000610187E291E00E947501FFCF84B1806234
:0803900084B90895F894FFCF31
:100398000040436F6D706172616E646F2E2E2E0087
:1003A8002020202020202020202020202000546FE2
:1003B800646F732E2E2E00726570726F6261646FA7
:0403C800732120007D
:0400000300000126D2
:00000001FF
