S01B000041746D6567613332385F4D435F323032325F322E7372656378
S11300000C9434000C943E000C943E000C943E007E
S11300100C943E000C943E000C943E000C943E0064
S11300200C943E000C943E000C943E000C943E0054
S11300300C943E000C943E000C943E000C943E0044
S11300400C943E000C943E000C943E000C943E0034
S11300500C943E000C943E000C943E000C943E0024
S11300600C943E000C943E0011241FBECFEFD8E048
S1130070DEBFCDBF0E9453000C9477000C940000A7
S113008020E030E00CC095B180E2892785B987EA89
S113009091E60197F1F700C000002F5F3F4F253034
S11300A031058CF308950E945C000E9440008FEC9F
S11300B090E00E946000FFCF84B1806284B908950B
S11300C0E2ECF0E020812F73208322E02093C00033
S11300D09093C5008093C40086E08083E1ECF0E057
S11300E088E1808378948081806880830895F8947F
S10500F0FFCF3C
S9030000FC
