:100000000C9434000C9451000C9451000C94510049
:100010000C9451000C9451000C9451000C9451001C
:100020000C9451000C9451000C9451000C9451000C
:100030000C9451000C9451000C9451000C945100FC
:100040000C9451000C9451000C9481000C945100BC
:100050000C9451000C9451000C9451000C945100DC
:100060000C9451000C94510011241FBECFEFD8E026
:10007000DEBFCDBF11E0A0E0B1E0E0ECF1E002C0F6
:1000800005900D92AE30B107D9F721E0AEE0B1E0B6
:1000900001C01D92AF30B207E1F70E9469000C94D5
:1000A000DE000C94000020E030E00FC095B180E24B
:1000B000892785B94FEF81EE94E041508040904010
:1000C000E1F700C000002F5F3F4F2630310574F389
:1000D00008950E9476000E9453008FEC90E00E94E9
:1000E000C70080E091E00E94AE00FFCF84B1806243
:1000F00084B908959091C00095FFFCCF8093C6000D
:1001000008951F920F920FB60F9211242F933F93D1
:100110004F935F936F937F938F939F93AF93BF930F
:10012000EF93FF938091C60080930E0180E40E94BC
:100130007A0080910E010E947A00FF91EF91BF91A9
:10014000AF919F918F917F916F915F914F913F916F
:100150002F910F900FBE0F901F9018950F931F9324
:10016000CF93DF938C01C0E0D0E009C0F801EC0F21
:10017000FD1F8081882331F021960E947A00C034CF
:10018000D105A4F3DF91CF911F910F910895E2EC77
:10019000F0E020812F73208322E02093C000909311
:1001A000C5008093C40086E08083E1ECF0E088E144
:1001B000808378948081806880830895F894FFCF4D
:0E01C000486F6C61204A657375732E2E2E00F9
:00000001FF
