:100000000C9434000C94B4000C9449000C944900F6
:100010000C9449000C9449000C9449000C9449003C
:100020000C9449000C9449000C9449000C9449002C
:100030000C9449000C9449000C9449000C9449001C
:100040000C9449000C9449000C9449000C9449000C
:100050000C9449000C9449000C9449000C944B00FA
:100060000C9449000C94490011241FBECFEFD8E036
:10007000DEBFCDBF11E0A0E0B1E0E6EEF3E002C0EC
:1000800005900D92A833B107D9F70E94DE010C94B8
:10009000F1010C9400001F920F920FB60F921124E1
:1000A0002F933F934F935F936F937F938F939F9380
:1000B000AF93BF93EF93FF930EC062E081E00E9485
:1000C000A80182E091E00E94B2018FE493EC0197D5
:1000D000F1F700C0000000B605FCEFCF62E081E060
:1000E0000E94A80180E191E00E94B201FF91EF918E
:1000F000BF91AF919F918F917F916F915F914F9140
:100100003F912F910F900FBE0F901F90189580B7C1
:10011000836180BF80B7886080BF78940895109213
:10012000B90084E18093B80084E08093BC00089516
:1001300084EA8093BC008091BC008823E4F7089592
:1001400084E98093BC008FE99FE00197F1F700C03C
:10015000000008958093BB0084EC8093BC008091E4
:10016000BC008823E4F708951F920F920FB60F92F8
:1001700011242F933F934F935F936F937F938F93AC
:100180009F93AF93BF93EF93FF9362E083E00E944E
:10019000A8018EE191E00E94B201FF91EF91BF9121
:1001A000AF919F918F917F916F915F914F913F910F
:1001B0002F910F900FBE0F901F901895E9E6F0E079
:1001C0008081826080838DB381608DBB7894089537
:1001D0008FEF84B98AB11AB88BB184608BB987B1BB
:1001E000806387B988B1806388B908950E949800B8
:1001F00080E70E94AA008FEF0E94AA002FEF89EFEC
:1002000090E0215080409040E1F700C0000084E37E
:100210000E94AA0080E30E94AA008FE39CE9019754
:10022000F1F700C0000084E30E94AA0080E30E946E
:10023000AA008FE99FE00197F1F700C0000084E376
:100240000E94AA0080E30E94AA008FE99FE0019724
:10025000F1F700C0000084E20E94AA0080E20E9440
:10026000AA008FE99FE00197F1F700C000000E940B
:10027000A0000895CF93DF93C82F0E94980080E7D5
:100280000E94AA00DC2FD07F8D2F8C600E94AA00D4
:100290008D2F88600E94AA0080E1C89FE001112490
:1002A0008C2F8C600E94AA008C2F0E94AA000E94B2
:1002B000A0008FE39FE10197F1F700C000008FE3FA
:1002C0009FE10197F1F700C00000DF91CF91089501
:1002D0000E948F000E94F6008CE20E943A018CE09E
:1002E0000E943A0186E00E943A0180E80E943A01A9
:1002F0000895CF93DF93C82F0E94980080E70E9453
:10030000AA00DC2FD07F8D2F8D600E94AA008D2F38
:1003100089600E94AA0080E1C89FE00111248C2F0F
:100320008D600E94AA008C2F89600E94AA000E9402
:10033000A0008FE39FE10197F1F700C000008FE379
:100340009FE10197F1F700C00000DF91CF91089580
:10035000E62FF0E0E150FF4F9081890F81580E9415
:100360003A0108950F931F93CF93DF938C01C0E060
:10037000D0E003C00E9479012196F801EC0FFD1F27
:1003800080818111F7CFDF91CF911F910F91089557
:1003900020E030E00FC095B180E2892785B94FEFAA
:1003A00081EE94E0415080409040E1F700C00000B1
:1003B0002F5F3F4F2530310574F308950E94E80008
:1003C0000E94C8010E94680161E083E00E94A801C8
:1003D0008BE291E00E94B2010E94DE000E94870041
:0603E000FFCFF894FFCFEF
:1003E6000040436F6D706172616E646F2E2E2E0039
:1003F6002020202020202020202020202000726580
:100406006369626520494E54302000686F6C612034
:080416006C636420693263008D
:0400000300000130C8
:00000001FF
