S016000053444B5F41746D656761333238702E7372656371
S11300000C9434000C9449000C9449000C9449005D
S11300100C9449000C9449000C9449000C94490038
S11300200C9449000C9449000C9449000C94490028
S11300300C9449000C9449000C9449000C94490018
S11300400C9449000C9449000C9449000C94490008
S11300500C9449000C9449000C9449000C944900F8
S11300600C9449000C94490011241FBECFEFD8E032
S1130070DEBFCDBF11E0A0E0B1E0E8E1F2E002C0F4
S113008005900D92AC30B107D9F70E94FB000C9497
S11300900A010C9400008FEF84B908958FEF85B99D
S11300A02FEF89EF90E0215080409040E1F700C0AD
S11300B0000094E395B980E385B9EFE3FCE9319757
S11300C0F1F700C0000095B985B9EFE9FFE0319779
S11300D0F1F700C0000095B985B98FE99FE0019759
S11300E0F1F700C0000084E285B980E285B9EFE948
S11300F0FFE03197F1F700C000000895982F907F3A
S1130100292F246025B995B920E1829FC0011124CB
S1130110982F946095B985B98FE39FE10197F1F722
S113012000C000008FE39FE10197F1F700C00000D9
S113013008950E944E008CE20E947E008CE00E9492
S11301407E0086E00E947E0080E80E947E00089582
S1130150982F907F292F256025B9916095B920E1CA
S1130160829FC0011124982F956095B9816085B94B
S11301708FE39FE10197F1F700C000008FE39FE157
S11301800197F1F700C000000895E62FF0E0E15078
S1130190FF4F9081890F81580E947E0008950F932C
S11301A01F93CF93DF938C01C0E0D0E003C00E9483
S11301B0A8002196F801EC0FFD1F80818111F7CF73
S11301C0DF91CF911F910F91089520E030E00FC08F
S11301D095B180E2892785B94FEF81EE94E04150D3
S11301E080409040E1F700C000002F5F3F4F253072
S11301F0310574F308950E944B000E94E5000E94AB
S1130200990061E083E00E94C50082E091E00E94D1
S10B0210CF00FFCFF894FFCFEB
S10F02180040686F6C61206C636400009F
S9030000FC
