:100000000C9434000C943E000C943E000C943E0082
:100010000C943E000C943E000C943E000C943E0068
:100020000C943E000C943E000C943E000C943E0058
:100030000C943E000C943E000C943E000C943E0048
:100040000C943E000C943E000C943E000C943E0038
:100050000C943E000C943E000C943E000C943E0028
:100060000C943E000C943E0011241FBECFEFD8E04C
:10007000DEBFCDBF0E9452000C9457000C940000CC
:1000800084B1806284B9089595B180E2892785B9E9
:100090002FEF81EE94E0215080409040E1F700C0C6
:1000A000000008950E9440000E944400FDCFF89493
:0200B000FFCF80
:00000001FF
