:100000000C9434000C943E000C943E000C943E0082
:100010000C943E000C943E000C943E000C943E0068
:100020000C943E000C943E000C943E000C943E0058
:100030000C943E000C943E000C943E000C943E0048
:100040000C943E000C943E000C943E000C943E0038
:100050000C943E000C943E000C943E000C943E0028
:100060000C943E000C943E0011241FBECFEFD8E04C
:10007000DEBFCDBF0E9458000C9464000C940000B9
:1000800085B115B82FEF81EE94E02150804090406B
:10009000E1F700C0000085B1806285B92FEF81EEE5
:1000A00094E0215080409040E1F700C000000895A6
:1000B0000E945D000E944000FDCF84B1806284B93F
:0C00C00085B1806285B90895F894FFCFE7
:00000001FF
