:100000000C9434000C9446000C9446000C9446006A
:100010000C9446000C9446000C9446000C94460048
:100020000C9446000C9446000C9446000C9474000A
:100030000C9446000C9446000C9446000C94460028
:100040000C9457000C9446000C9446000C94460007
:100050000C9446000C9446000C9446000C94460008
:100060000C9446000C94460011241FBECFEFD8E03C
:10007000DEBFCDBF21E0A0E0B1E001C01D92A13004
:10008000B207E1F70E9448000C9495000C94000020
:100090000E944D000E948600FFCF84B1806284B927
:1000A00084B1826084B984B1886084B908951F9254
:1000B0000F920FB60F9211248F939F93809100019E
:1000C0008F5F80930001809100018D3730F095B1F2
:1000D00080E2892785B9109200019F918F910F903E
:1000E0000FBE0F901F9018951F920F920FB60F9290
:1000F00011248F939F9395B180E2892785B99F91B1
:100100008F910F900FBE0F901F901895E0EBF0E0CD
:100110008081816080838081806880838081856028
:0E01200080838AE08093B3000895F894FFCFA7
:00000001FF
