:100000000C94B1000C94BE010C94CE000C94CE0064
:100010000C94CE000C94CE000C94CE000C94CE0028
:100020000C94CE000C94CE000C94CE000C94CE0018
:100030000C94CE000C94CE000C94CE000C94CE0008
:100040000C946E010C94CE000C947D020C94CE00A6
:100050000C94CE000C94CE000C94CE000C94CE00E8
:100060000C94CE000C94CE0000407A10F35A00A0FD
:10007000724E18090010A5D4E80000E87648170071
:1000800000E40B54020000CA9A3B000000E1F505B1
:10009000000080969800000040420F000000A086FB
:1000A00001000000102700000000E803000000002D
:1000B0006400000000000A000000000001000000D1
:1000C00000002C76D888DC674F0823DFC1DFAE59EB
:1000D000E1B1B796E5E3E453C63AE651997696E87E
:1000E000E6C28426EB898C9B62ED407C6FFCEFBC02
:1000F0009C9F40F2BAA56FA5F490055A2AF75C932D
:100100006B6CF9676DC11BFCE0E40D47FEF520E662
:10011000B500D0ED902E0300943577050080841E45
:10012000080000204E0A000000C80C333333330FA0
:10013000986E12831141EF8D2114893BE65516CF3D
:10014000FEE6DB18D1844B381BF77C1D901DA4BB49
:10015000E424203284725E228100C9F124ECA1E5FE
:100160003D2711241FBECFEFD8E0DEBFCDBF11E089
:10017000A0E0B1E0E8E8FBE002C005900D92A432F7
:10018000B107D9F721E0A4E2B1E001C01D92AF327E
:10019000B207E1F70E9400010C94C2050C94000024
:1001A00084B1816084B985B115B88AB11AB88BB1B0
:1001B00084608BB984B1826084B984B1846084B96D
:1001C00084B1886184B987B1806387B984B1806262
:1001D00084B9089520E030E00FC095B180E289270E
:1001E00085B94FEF81EE94E0415080409040E1F7B7
:1001F00000C000002F5F3F4F2630310574F3089593
:100200000E94D0000E94EA000E9417010E9465012E
:100210008FEC90E00E94C30280E091E00E94AA026D
:100220000E942D020E9436020E944102FFCFE0E8A8
:10023000F0E08081816080838081806A8083E1E852
:10024000F0E08081856080830895811105C088B1C8
:1002500018B888B118B80FC0813031F488B118B817
:1002600088B1806288B907C0823029F488B118B893
:1002700088B1806188B98FB770E0635F7F4F7093FA
:100280008900609388008FBF0895811105C085B1F2
:1002900015B885B115B80FC0813031F485B115B8E6
:1002A00085B1806185B907C0823029F485B115B860
:1002B00085B1886085B98FB770E0605F7F4F7093BC
:1002C0008B0060938A008FBF089564E182E00E94F2
:1002D000450164E682E00E94250108951F920F9275
:1002E0000FB60F9211242F938F939F93AF93BF93C9
:1002F000809129018823C1F18091240190912501E9
:10030000A0912601B09127010196A11DB11D8093F6
:10031000240190932501A0932601B0932701809199
:10032000240190912501A0912601B0912701BA2FB7
:10033000A92F982F882726B5820F911DA11DB11DC9
:1003400081309543AC40B10578F0109229011092AC
:1003500028018FEF9FEFDC0180932A0190932B01FE
:10036000A0932C01B0932D01BF91AF919F918F91DC
:100370002F910F900FBE0F901F9018951F920F9204
:100380000FB60F9211242F933F934F935F936F9368
:100390007F938F939F93AF93BF93EF93FF9380913E
:1003A00028018823B1F18091290181110DC081E0DC
:1003B00080932901109224011092250110922601A8
:1003C0001092270116BC25C01092290180912401AA
:1003D00090912501A0912601B0912701BA2FA92F54
:1003E000982F882726B5BC01CD01620F711D811D94
:1003F000911D2AE330E040E050E00E941703209373
:100400002A0130932B0140932C0150932D0110921F
:100410002801FF91EF91BF91AF919F918F917F91B3
:100420006F915F914F913F912F910F900FBE0F9061
:100430001F90189585B115B885E18A95F1F70000F0
:1004400085B1816085B981E08093280185E38A9533
:10045000F1F7000085B115B80895E9E6F0E0808174
:10046000816080838DB381608DBB089585B5816087
:1004700085BD16BCEEE6F0E08081816080837894D3
:100480000895CF93DF93CDB7DEB72A970FB6F894D0
:10049000DEBF0FBECDBF809128018111FCCF2FEFB1
:1004A0008DEE92E0215080409040E1F700C00000C6
:1004B0000E941A0288E191E00E94AA0260912A013A
:1004C00070912B0180912C0190912D010E94DC02F2
:1004D0008E010F5F1F4F22E044E00E943903C801E4
:1004E0000E94AA028DE00E947602D5CF9091C000B2
:1004F00095FFFCCF8093C60008951F920F920FB610
:100500000F9211242F933F934F935F936F937F9399
:100510008F939F93AF93BF93EF93FF938091C60008
:1005200080932E0181E40E94760280912E010E9428
:100530007602FF91EF91BF91AF919F918F917F9143
:100540006F915F914F913F912F910F900FBE0F9040
:100550001F9018950F931F93CF93DF938C01C0E0EA
:10056000D0E009C0F801EC0FFD1F8081882331F035
:1005700021960E947602C034D105A4F3DF91CF9179
:100580001F910F910895E2ECF0E020812F7B2083F2
:1005900022E02093C0009093C5008093C40086E0C1
:1005A0008083E1ECF0E088E180837894808180684A
:1005B00080830895E89409C097FB3EF49095809558
:1005C000709561957F4F8F4F9F4F9923A9F0F92F19
:1005D00096E9BB279395F695879577956795B79597
:1005E000F111F8CFFAF4BB0F11F460FF1BC06F5F7D
:1005F0007F4F8F4F9F4F16C0882311F096E911C08F
:10060000772321F09EE8872F762F05C0662371F0AF
:1006100096E8862F70E060E02AF09A95660F771FC3
:10062000881FDAF7880F9695879597F90895A1E2C4
:100630001A2EAA1BBB1BFD010DC0AA1FBB1FEE1F5C
:10064000FF1FA217B307E407F50720F0A21BB30BA7
:10065000E40BF50B661F771F881F991F1A9469F723
:1006600060957095809590959B01AC01BD01CF017F
:100670000895EF920F931F93CF93DF93E80147FD07
:1006800002C034E001C034E1042E000C550B57FFCA
:1006900003C0519541955109E32E022F242FAE013D
:1006A0000E945903CE01DF91CF911F910F91EF90DE
:1006B0000895A9E0B0E0EFE5F3E00C9491056A013C
:1006C000122FB02E2BE3201720F0FF24F394F00E0E
:1006D00002C02CE3F22E0F2D27E0AE014F5F5F4FDB
:1006E0000E94B304BC014981842F8970813031F0AC
:1006F000E1FC06C0E0FE06C090E205C09DE203C03A
:100700009BE201C090E05E2D507143FF3CC091110F
:1007100002C083E001C084E0811718F4212F281B58
:1007200001C020E051110BC0F601822F30E2882376
:1007300019F031938150FBCFC20ED11C20E09923D8
:1007400029F0D6019C93F60131966F01C6010396FC
:10075000E2FE0AC03EE4D6013C9341E411964C937C
:10076000119712963C9306C03EE6F601308341E6AF
:1007700041833283FC01322F40E2332309F442C02B
:1007800041933150FACF42FF44C0911102C083E03F
:1007900001C084E0811718F4212F281B01C020E03C
:1007A00051110BC0F601822F30E2882319F03193EA
:1007B0008150FBCFC20ED11C20E0992329F0D60135
:1007C0009C93F60131966F01C6010396E2FE0BC0C1
:1007D00039E4D6013C933EE411963C93119736E4FC
:1007E00012963C9307C039E6F60130833EE631832A
:1007F00036E63283FC01322F40E2332319F0419375
:100800003150FBCFFC01E20FF11D10828EEF9FEF04
:10081000A6C021E030E0911102C020E030E01616C1
:1008200017061CF4FB01319602C0E1E0F0E02E0F48
:100830003F1FBB2021F0EB2DF0E0319602C0E0E03D
:10084000F0E02E0F3F1FE12FF0E02E173F071CF4C2
:10085000121B212F01C020E08E2D887159F4F60162
:10086000822F30E2882319F031938150FBCFC20EE2
:10087000D11C20E0992329F0D6019C93F6013196F2
:100880006F0151110BC0F601822F90E3882319F0FC
:1008900091938150FBCFC20ED11C20E00F2D060F8B
:1008A0009A81342F307144FF03C0913309F4015011
:1008B000101624F4093018F008E001C001E0AB0183
:1008C00077FF02C040E050E0FB01E41BF50BA1E024
:1008D000B0E0AC0FBD1FEA0FFB1F8EE2A82E4B014C
:1008E000801A91080B2D10E01195019511094F3FC9
:1008F000BFEF5B0721F4D601AC9211966D0164172E
:1009000075072CF08416950614F4818101C080E3EC
:10091000415051093196D60111967D01401751077A
:1009200024F0D6018C936701E2CF6417750739F480
:10093000963320F4953319F4311101C081E3F601A7
:100940008083F701822F90E2882319F091938150E0
:10095000FBCFF701E20FF11D108280E090E02996B5
:10096000ECE00C94AD05283008F027E03327DA01DD
:10097000990F311D87FD916000966105710539F46D
:1009800032602E5F3D9330E32A95E1F708959F3F53
:1009900030F080387105610509F03C5F3C5F3D93A4
:1009A000913008F08068911DDF93CF931F930F93D0
:1009B000FF92EF92192F987F9695E92F969596952D
:1009C000E90FFF27EE53FF4F99273327EE24FF242B
:1009D000A701E70105900894079428F4360FE71E55
:1009E000F81E491F511D660F771F881F991F069417
:1009F000A1F70590079428F4E70EF81E491F561F2B
:100A0000C11D770F881F991F661F0694A1F70590D7
:100A1000079428F4F80E491F561FC71FD11D880FD1
:100A2000991F661F771F0694A1F70590079420F47D
:100A3000490F561FC71FD81F990F661F771F881FA2
:100A40000694A9F784911095177041F0D695C79533
:100A500057954795F794E7941A95C1F7E8E6F0E0C3
:100A600068941590159135916591959105907FE267
:100A70007395E118F10A430B560BC90BD009C0F767
:100A8000E10CF11E431F561FC91FD01D7EF47033A9
:100A900011F48A95E6CFE894015030F0080F0AF47B
:100AA0000027021708F4202F2395022F7A3328F00D
:100AB00079E37D932A95E9F710C07D932A9589F60D
:100AC000069497956795379517951794E118F10A4D
:100AD000430B560BC90BD00998F023957E91739563
:100AE0007A3308F070E37C932013B8F77E9170613D
:100AF0007D9330F0839571E37D9370E32A95E1F760
:100B00001124EF90FF900F911F91CF91DF919927C2
:100B100087FD909508952F923F924F925F926F922A
:100B20007F928F929F92AF92BF92CF92DF92EF927D
:100B3000FF920F931F93CF93DF93CDB7DEB7CA1BFE
:100B4000DB0B0FB6F894DEBF0FBECDBF09942A8829
:100B5000398848885F846E847D848C849B84AA84D1
:100B6000B984C884DF80EE80FD800C811B81AA815E
:100B7000B981CE0FD11D0FB6F894DEBF0FBECDBF29
:080B8000ED010895F894FFCF88
:100B88004D6172696F206573746120726570726F50
:100B98006261646F2E2E2E0044697374616E636502
:040BA8003A200000EF
:00000001FF
